{
  "_format": "hh-sol-artifact-1",
  "contractName": "ClaimManagement",
  "sourceName": "contracts/ClaimManagement.sol",
  "abi": [
    {
      "anonymous": false,
      "inputs": [
        {
          "indexed": true,
          "internalType": "bytes32",
          "name": "imeiHash",
          "type": "bytes32"
        },
        {
          "indexed": false,
          "internalType": "bool",
          "name": "status",
          "type": "bool"
        }
      ],
      "name": "ClaimRecorded",
      "type": "event"
    },
    {
      "inputs": [
        {
          "internalType": "string",
          "name": "imei",
          "type": "string"
        }
      ],
      "name": "isClaimed",
      "outputs": [
        {
          "internalType": "bool",
          "name": "",
          "type": "bool"
        }
      ],
      "stateMutability": "view",
      "type": "function"
    },
    {
      "inputs": [
        {
          "internalType": "string",
          "name": "imei",
          "type": "string"
        }
      ],
      "name": "recordClaim",
      "outputs": [
        {
          "internalType": "bool",
          "name": "",
          "type": "bool"
        }
      ],
      "stateMutability": "nonpayable",
      "type": "function"
    }
  ],
  "bytecode": "0x608060405234801561001057600080fd5b506104fd806100206000396000f3fe608060405234801561001057600080fd5b50600436106100365760003560e01c8063a0a341fe1461003b578063c9863ba41461006b575b600080fd5b61005560048036038101906100509190610343565b61009b565b60405161006291906103a7565b60405180910390f35b61008560048036038101906100809190610343565b6100ef565b60405161009291906103a7565b60405180910390f35b600080826040516020016100af9190610433565b60405160208183030381529060405280519060200120905060008082815260200190815260200160002060009054906101000a900460ff16915050919050565b600080826040516020016101039190610433565b60405160208183030381529060405280519060200120905060008082815260200190815260200160002060009054906101000a900460ff161561017b576040517f08c379a0000000000000000000000000000000000000000000000000000000008152600401610172906104a7565b60405180910390fd5b600160008083815260200190815260200160002060006101000a81548160ff021916908315150217905550807f37bc1018aa73bec54480fa18810cfaa54afce55d595b06edb33ac2d964d3289560016040516101d791906103a7565b60405180910390a26001915050919050565b6000604051905090565b600080fd5b600080fd5b600080fd5b600080fd5b6000601f19601f8301169050919050565b7f4e487b7100000000000000000000000000000000000000000000000000000000600052604160045260246000fd5b61025082610207565b810181811067ffffffffffffffff8211171561026f5761026e610218565b5b80604052505050565b60006102826101e9565b905061028e8282610247565b919050565b600067ffffffffffffffff8211156102ae576102ad610218565b5b6102b782610207565b9050602081019050919050565b82818337600083830152505050565b60006102e66102e184610293565b610278565b90508281526020810184848401111561030257610301610202565b5b61030d8482856102c4565b509392505050565b600082601f83011261032a576103296101fd565b5b813561033a8482602086016102d3565b91505092915050565b600060208284031215610359576103586101f3565b5b600082013567ffffffffffffffff811115610377576103766101f8565b5b61038384828501610315565b91505092915050565b60008115159050919050565b6103a18161038c565b82525050565b60006020820190506103bc6000830184610398565b92915050565b600081519050919050565b600081905092915050565b60005b838110156103f65780820151818401526020810190506103db565b60008484015250505050565b600061040d826103c2565b61041781856103cd565b93506104278185602086016103d8565b80840191505092915050565b600061043f8284610402565b915081905092915050565b600082825260208201905092915050565b7f494d454920616c726561647920636c61696d6564000000000000000000000000600082015250565b600061049160148361044a565b915061049c8261045b565b602082019050919050565b600060208201905081810360008301526104c081610484565b905091905056fea2646970667358221220730f8e216b78c9588ee342dba475491e8fd01d042042bd46692471f8d18500bc64736f6c63430008180033",
  "linkReferences": {},
  "deployedLinkReferences": {}
}