{"contracts/ClaimManagement.sol":{"ClaimManagement":{"abi":[{"anonymous":false,"inputs":[{"indexed":true,"internalType":"bytes32","name":"imeiHash","type":"bytes32"},{"indexed":false,"internalType":"bool","name":"status","type":"bool"}],"name":"ClaimRecorded","type":"event"},{"inputs":[{"internalType":"string","name":"imei","type":"string"}],"name":"isClaimed","outputs":[{"internalType":"bool","name":"","type":"bool"}],"stateMutability":"view","type":"function"},{"inputs":[{"internalType":"string","name":"imei","type":"string"}],"name":"recordClaim","outputs":[{"internalType":"bool","name":"","type":"bool"}],"stateMutability":"nonpayable","type":"function"}],"evm":{"bytecode":{"linkReferences":{},"object":"608060405234801561001057600080fd5b506104fd806100206000396000f3fe608060405234801561001057600080fd5b50600436106100365760003560e01c8063a0a341fe1461003b578063c9863ba41461006b575b600080fd5b61005560048036038101906100509190610343565b61009b565b60405161006291906103a7565b60405180910390f35b61008560048036038101906100809190610343565b6100ef565b60405161009291906103a7565b60405180910390f35b600080826040516020016100af9190610433565b60405160208183030381529060405280519060200120905060008082815260200190815260200160002060009054906101000a900460ff16915050919050565b600080826040516020016101039190610433565b60405160208183030381529060405280519060200120905060008082815260200190815260200160002060009054906101000a900460ff161561017b576040517f08c379a0000000000000000000000000000000000000000000000000000000008152600401610172906104a7565b60405180910390fd5b600160008083815260200190815260200160002060006101000a81548160ff021916908315150217905550807f37bc1018aa73bec54480fa18810cfaa54afce55d595b06edb33ac2d964d3289560016040516101d791906103a7565b60405180910390a26001915050919050565b6000604051905090565b600080fd5b600080fd5b600080fd5b600080fd5b6000601f19601f8301169050919050565b7f4e487b7100000000000000000000000000000000000000000000000000000000600052604160045260246000fd5b61025082610207565b810181811067ffffffffffffffff8211171561026f5761026e610218565b5b80604052505050565b60006102826101e9565b905061028e8282610247565b919050565b600067ffffffffffffffff8211156102ae576102ad610218565b5b6102b782610207565b9050602081019050919050565b82818337600083830152505050565b60006102e66102e184610293565b610278565b90508281526020810184848401111561030257610301610202565b5b61030d8482856102c4565b509392505050565b600082601f83011261032a576103296101fd565b5b813561033a8482602086016102d3565b91505092915050565b600060208284031215610359576103586101f3565b5b600082013567ffffffffffffffff811115610377576103766101f8565b5b61038384828501610315565b91505092915050565b60008115159050919050565b6103a18161038c565b82525050565b60006020820190506103bc6000830184610398565b92915050565b600081519050919050565b600081905092915050565b60005b838110156103f65780820151818401526020810190506103db565b60008484015250505050565b600061040d826103c2565b61041781856103cd565b93506104278185602086016103d8565b80840191505092915050565b600061043f8284610402565b915081905092915050565b600082825260208201905092915050565b7f494d454920616c726561647920636c61696d6564000000000000000000000000600082015250565b600061049160148361044a565b915061049c8261045b565b602082019050919050565b600060208201905081810360008301526104c081610484565b905091905056fea2646970667358221220730f8e216b78c9588ee342dba475491e8fd01d042042bd46692471f8d18500bc64736f6c63430008180033","opcodes":"PUSH1 0x80 PUSH1 0x40 MSTORE CALLVALUE DUP1 ISZERO PUSH2 0x10 JUMPI PUSH1 0x0 DUP1 REVERT JUMPDEST POP PUSH2 0x4FD DUP1 PUSH2 0x20 PUSH1 0x0 CODECOPY PUSH1 0x0 RETURN INVALID PUSH1 0x80 PUSH1 0x40 MSTORE CALLVALUE DUP1 ISZERO PUSH2 0x10 JUMPI PUSH1 0x0 DUP1 REVERT JUMPDEST POP PUSH1 0x4 CALLDATASIZE LT PUSH2 0x36 JUMPI PUSH1 0x0 CALLDATALOAD PUSH1 0xE0 SHR DUP1 PUSH4 0xA0A341FE EQ PUSH2 0x3B JUMPI DUP1 PUSH4 0xC9863BA4 EQ PUSH2 0x6B JUMPI JUMPDEST PUSH1 0x0 DUP1 REVERT JUMPDEST PUSH2 0x55 PUSH1 0x4 DUP1 CALLDATASIZE SUB DUP2 ADD SWAP1 PUSH2 0x50 SWAP2 SWAP1 PUSH2 0x343 JUMP JUMPDEST PUSH2 0x9B JUMP JUMPDEST PUSH1 0x40 MLOAD PUSH2 0x62 SWAP2 SWAP1 PUSH2 0x3A7 JUMP JUMPDEST PUSH1 0x40 MLOAD DUP1 SWAP2 SUB SWAP1 RETURN JUMPDEST PUSH2 0x85 PUSH1 0x4 DUP1 CALLDATASIZE SUB DUP2 ADD SWAP1 PUSH2 0x80 SWAP2 SWAP1 PUSH2 0x343 JUMP JUMPDEST PUSH2 0xEF JUMP JUMPDEST PUSH1 0x40 MLOAD PUSH2 0x92 SWAP2 SWAP1 PUSH2 0x3A7 JUMP JUMPDEST PUSH1 0x40 MLOAD DUP1 SWAP2 SUB SWAP1 RETURN JUMPDEST PUSH1 0x0 DUP1 DUP3 PUSH1 0x40 MLOAD PUSH1 0x20 ADD PUSH2 0xAF SWAP2 SWAP1 PUSH2 0x433 JUMP JUMPDEST PUSH1 0x40 MLOAD PUSH1 0x20 DUP2 DUP4 SUB SUB DUP2 MSTORE SWAP1 PUSH1 0x40 MSTORE DUP1 MLOAD SWAP1 PUSH1 0x20 ADD KECCAK256 SWAP1 POP PUSH1 0x0 DUP1 DUP3 DUP2 MSTORE PUSH1 0x20 ADD SWAP1 DUP2 MSTORE PUSH1 0x20 ADD PUSH1 0x0 KECCAK256 PUSH1 0x0 SWAP1 SLOAD SWAP1 PUSH2 0x100 EXP SWAP1 DIV PUSH1 0xFF AND SWAP2 POP POP SWAP2 SWAP1 POP JUMP JUMPDEST PUSH1 0x0 DUP1 DUP3 PUSH1 0x40 MLOAD PUSH1 0x20 ADD PUSH2 0x103 SWAP2 SWAP1 PUSH2 0x433 JUMP JUMPDEST PUSH1 0x40 MLOAD PUSH1 0x20 DUP2 DUP4 SUB SUB DUP2 MSTORE SWAP1 PUSH1 0x40 MSTORE DUP1 MLOAD SWAP1 PUSH1 0x20 ADD KECCAK256 SWAP1 POP PUSH1 0x0 DUP1 DUP3 DUP2 MSTORE PUSH1 0x20 ADD SWAP1 DUP2 MSTORE PUSH1 0x20 ADD PUSH1 0x0 KECCAK256 PUSH1 0x0 SWAP1 SLOAD SWAP1 PUSH2 0x100 EXP SWAP1 DIV PUSH1 0xFF AND ISZERO PUSH2 0x17B JUMPI PUSH1 0x40 MLOAD PUSH32 0x8C379A000000000000000000000000000000000000000000000000000000000 DUP2 MSTORE PUSH1 0x4 ADD PUSH2 0x172 SWAP1 PUSH2 0x4A7 JUMP JUMPDEST PUSH1 0x40 MLOAD DUP1 SWAP2 SUB SWAP1 REVERT JUMPDEST PUSH1 0x1 PUSH1 0x0 DUP1 DUP4 DUP2 MSTORE PUSH1 0x20 ADD SWAP1 DUP2 MSTORE PUSH1 0x20 ADD PUSH1 0x0 KECCAK256 PUSH1 0x0 PUSH2 0x100 EXP DUP2 SLOAD DUP2 PUSH1 0xFF MUL NOT AND SWAP1 DUP4 ISZERO ISZERO MUL OR SWAP1 SSTORE POP DUP1 PUSH32 0x37BC1018AA73BEC54480FA18810CFAA54AFCE55D595B06EDB33AC2D964D32895 PUSH1 0x1 PUSH1 0x40 MLOAD PUSH2 0x1D7 SWAP2 SWAP1 PUSH2 0x3A7 JUMP JUMPDEST PUSH1 0x40 MLOAD DUP1 SWAP2 SUB SWAP1 LOG2 PUSH1 0x1 SWAP2 POP POP SWAP2 SWAP1 POP JUMP JUMPDEST PUSH1 0x0 PUSH1 0x40 MLOAD SWAP1 POP SWAP1 JUMP JUMPDEST PUSH1 0x0 DUP1 REVERT JUMPDEST PUSH1 0x0 DUP1 REVERT JUMPDEST PUSH1 0x0 DUP1 REVERT JUMPDEST PUSH1 0x0 DUP1 REVERT JUMPDEST PUSH1 0x0 PUSH1 0x1F NOT PUSH1 0x1F DUP4 ADD AND SWAP1 POP SWAP2 SWAP1 POP JUMP JUMPDEST PUSH32 0x4E487B7100000000000000000000000000000000000000000000000000000000 PUSH1 0x0 MSTORE PUSH1 0x41 PUSH1 0x4 MSTORE PUSH1 0x24 PUSH1 0x0 REVERT JUMPDEST PUSH2 0x250 DUP3 PUSH2 0x207 JUMP JUMPDEST DUP2 ADD DUP2 DUP2 LT PUSH8 0xFFFFFFFFFFFFFFFF DUP3 GT OR ISZERO PUSH2 0x26F JUMPI PUSH2 0x26E PUSH2 0x218 JUMP JUMPDEST JUMPDEST DUP1 PUSH1 0x40 MSTORE POP POP POP JUMP JUMPDEST PUSH1 0x0 PUSH2 0x282 PUSH2 0x1E9 JUMP JUMPDEST SWAP1 POP PUSH2 0x28E DUP3 DUP3 PUSH2 0x247 JUMP JUMPDEST SWAP2 SWAP1 POP JUMP JUMPDEST PUSH1 0x0 PUSH8 0xFFFFFFFFFFFFFFFF DUP3 GT ISZERO PUSH2 0x2AE JUMPI PUSH2 0x2AD PUSH2 0x218 JUMP JUMPDEST JUMPDEST PUSH2 0x2B7 DUP3 PUSH2 0x207 JUMP JUMPDEST SWAP1 POP PUSH1 0x20 DUP2 ADD SWAP1 POP SWAP2 SWAP1 POP JUMP JUMPDEST DUP3 DUP2 DUP4 CALLDATACOPY PUSH1 0x0 DUP4 DUP4 ADD MSTORE POP POP POP JUMP JUMPDEST PUSH1 0x0 PUSH2 0x2E6 PUSH2 0x2E1 DUP5 PUSH2 0x293 JUMP JUMPDEST PUSH2 0x278 JUMP JUMPDEST SWAP1 POP DUP3 DUP2 MSTORE PUSH1 0x20 DUP2 ADD DUP5 DUP5 DUP5 ADD GT ISZERO PUSH2 0x302 JUMPI PUSH2 0x301 PUSH2 0x202 JUMP JUMPDEST JUMPDEST PUSH2 0x30D DUP5 DUP3 DUP6 PUSH2 0x2C4 JUMP JUMPDEST POP SWAP4 SWAP3 POP POP POP JUMP JUMPDEST PUSH1 0x0 DUP3 PUSH1 0x1F DUP4 ADD SLT PUSH2 0x32A JUMPI PUSH2 0x329 PUSH2 0x1FD JUMP JUMPDEST JUMPDEST DUP2 CALLDATALOAD PUSH2 0x33A DUP5 DUP3 PUSH1 0x20 DUP7 ADD PUSH2 0x2D3 JUMP JUMPDEST SWAP2 POP POP SWAP3 SWAP2 POP POP JUMP JUMPDEST PUSH1 0x0 PUSH1 0x20 DUP3 DUP5 SUB SLT ISZERO PUSH2 0x359 JUMPI PUSH2 0x358 PUSH2 0x1F3 JUMP JUMPDEST JUMPDEST PUSH1 0x0 DUP3 ADD CALLDATALOAD PUSH8 0xFFFFFFFFFFFFFFFF DUP2 GT ISZERO PUSH2 0x377 JUMPI PUSH2 0x376 PUSH2 0x1F8 JUMP JUMPDEST JUMPDEST PUSH2 0x383 DUP5 DUP3 DUP6 ADD PUSH2 0x315 JUMP JUMPDEST SWAP2 POP POP SWAP3 SWAP2 POP POP JUMP JUMPDEST PUSH1 0x0 DUP2 ISZERO ISZERO SWAP1 POP SWAP2 SWAP1 POP JUMP JUMPDEST PUSH2 0x3A1 DUP2 PUSH2 0x38C JUMP JUMPDEST DUP3 MSTORE POP POP JUMP JUMPDEST PUSH1 0x0 PUSH1 0x20 DUP3 ADD SWAP1 POP PUSH2 0x3BC PUSH1 0x0 DUP4 ADD DUP5 PUSH2 0x398 JUMP JUMPDEST SWAP3 SWAP2 POP POP JUMP JUMPDEST PUSH1 0x0 DUP2 MLOAD SWAP1 POP SWAP2 SWAP1 POP JUMP JUMPDEST PUSH1 0x0 DUP2 SWAP1 POP SWAP3 SWAP2 POP POP JUMP JUMPDEST PUSH1 0x0 JUMPDEST DUP4 DUP2 LT ISZERO PUSH2 0x3F6 JUMPI DUP1 DUP3 ADD MLOAD DUP2 DUP5 ADD MSTORE PUSH1 0x20 DUP2 ADD SWAP1 POP PUSH2 0x3DB JUMP JUMPDEST PUSH1 0x0 DUP5 DUP5 ADD MSTORE POP POP POP POP JUMP JUMPDEST PUSH1 0x0 PUSH2 0x40D DUP3 PUSH2 0x3C2 JUMP JUMPDEST PUSH2 0x417 DUP2 DUP6 PUSH2 0x3CD JUMP JUMPDEST SWAP4 POP PUSH2 0x427 DUP2 DUP6 PUSH1 0x20 DUP7 ADD PUSH2 0x3D8 JUMP JUMPDEST DUP1 DUP5 ADD SWAP2 POP POP SWAP3 SWAP2 POP POP JUMP JUMPDEST PUSH1 0x0 PUSH2 0x43F DUP3 DUP5 PUSH2 0x402 JUMP JUMPDEST SWAP2 POP DUP2 SWAP1 POP SWAP3 SWAP2 POP POP JUMP JUMPDEST PUSH1 0x0 DUP3 DUP3 MSTORE PUSH1 0x20 DUP3 ADD SWAP1 POP SWAP3 SWAP2 POP POP JUMP JUMPDEST PUSH32 0x494D454920616C726561647920636C61696D6564000000000000000000000000 PUSH1 0x0 DUP3 ADD MSTORE POP JUMP JUMPDEST PUSH1 0x0 PUSH2 0x491 PUSH1 0x14 DUP4 PUSH2 0x44A JUMP JUMPDEST SWAP2 POP PUSH2 0x49C DUP3 PUSH2 0x45B JUMP JUMPDEST PUSH1 0x20 DUP3 ADD SWAP1 POP SWAP2 SWAP1 POP JUMP JUMPDEST PUSH1 0x0 PUSH1 0x20 DUP3 ADD SWAP1 POP DUP2 DUP2 SUB PUSH1 0x0 DUP4 ADD MSTORE PUSH2 0x4C0 DUP2 PUSH2 0x484 JUMP JUMPDEST SWAP1 POP SWAP2 SWAP1 POP JUMP INVALID LOG2 PUSH5 0x6970667358 0x22 SLT KECCAK256 PUSH20 0xF8E216B78C9588EE342DBA475491E8FD01D0420 TIMESTAMP 0xBD CHAINID PUSH10 0x2471F8D18500BC64736F PUSH13 0x63430008180033000000000000 "},"methodIdentifiers":{"isClaimed(string)":"a0a341fe","recordClaim(string)":"c9863ba4"}}}}}